:020000040800F2
:1000000088270020690200080D200008C119000897
:100010009D1F000847070008792C00080000000019
:10002000000000000000000000000000D1010008F6
:10003000750700080000000015020008612900088B
:10004000830200088302000883020008830200087C
:10005000830200088302000883020008830200086C
:10006000830200088302000883020008830200085C
:10007000830200088302000883020008830200084C
:10008000830200088302000883020008830200083C
:10009000830200088302000883020008830200082C
:1000A000830200088302000883020008830200081C
:1000B0008302000883020008DD290008830200088B
:1000C00083020008830200088302000883020008FC
:1000D00083020008830200088302000883020008EC
:1000E00083020008830200088302000800F002F87F
:1000F00000F05FF80AA090E8000C82448344AAF163
:100100000107DA4501D100F054F8AFF2090EBAE860
:100110000F0013F0010F18BFFB1A43F0010318473B
:1001200028540000485400000A444FF0000C10F816
:10013000013B13F0070408BF10F8014B1D1108BF65
:1001400010F8015B641E05D010F8016B641E01F805
:10015000016BF9D113F0080F1EBF10F8014BAD1C55
:100160000C1B09D16D1E58BF01F801CBFAD505E073
:1001700014F8016B01F8016B6D1EF9D59142D6D3CD
:10018000704700000023002400250026103A28BFF5
:1001900078C1FBD8520728BF30C148BF0B607047F9
:1001A000642900F0C980002070471FB51FBD10B53D
:1001B00010BD00F08EFA1146FFF7F7FF02F09CFE2B
:1001C00000F0ACFA03B4FFF7F2FF03BC00F0B4FA9E
:1001D000224B19680868B0E8F00F80F30988BFF374
:1001E0006F8F4FF0000080F311884EF00D0E7047B6
:1001F0000000000006480068006880F3088862B6C6
:1002000061B6BFF34F8FBFF36F8F00DF00BF00BF3A
:1002100008ED00E0EFF30980BFF36F8F0F4B1A6812
:1002200020E9F00F106008B54FF0500080F31188FE
:10023000BFF34F8FBFF36F8F03F0FAFD4FF0000055
:1002400080F31188BDE8084019680868B0E8F00F2D
:1002500080F30988BFF36F8F704700BF1400002040
:10026000EFF30580704700000948804709480047C0
:10027000FEE7FEE7FEE7FEE7FEE7FEE7FEE7FEE756
:10028000FEE7FEE704480549054A064B70470000B3
:10029000D9290008ED0000088821002088270020C7
:1002A00088230020882300200FB41CB5074B06AA22
:1002B0007B4469460090059800F0C1F9002069462A
:1002C00000F0D0F91CBC5DF814FB0000B103000085
:1002D0002DE9F0410E460446002020622046E168E8
:1002E000884730B3252805D0D4E901219047206AFA
:1002F000401CF2E7E168204600278847050018D037
:10030000A5F14100192802D820354FF40067324684
:10031000294620462760FFF743FF40B1012804D05B
:10032000F61D26F007060836D8E7361DD6E728461C
:10033000DAE7206ABDE8F0812DE9F04106460024A5
:1003400010687529314616A510D0AFF3008000283B
:1003500002DA404213A507E031688A0701D512A5E9
:1003600002E0490704D511A5012401E0AFF30080A4
:1003700000210A2206F1240709E0B0FBF2FCB0FBE1
:10038000F2F302FB1C00303078541846491C002858
:10039000F3D123462A463046BDE8F04100F0F1B8DB
:1003A000000000002D0000002B00000020000000D5
:1003B00040EA010310B59B070FD1042A0DD310C8E2
:1003C00008C9121F9C42F8D020BA19BA884201D934
:1003D000012010BD4FF0FF3010BD1AB1D30703D07C
:1003E000521C07E0002010BD10F8013B11F8014B32
:1003F0001B1B07D110F8013B11F8014B1B1B01D14E
:10040000921EF1D1184610BD40EA0103024630B5F4
:100410009B0710D14FF0013400E008C208C91D1B32
:100420009D4315EAC41FF8D013F0FF0102F8011B29
:100430000DD01B0AF8E711F8013B002B02F8013B35
:1004400005D011F8013B002B02F8013BF3D130BD80
:10045000032A40F2308010F0030C00F0158011F8F0
:10046000013BBCF1020F624498BF11F801CB00F8C8
:10047000013B38BF11F8013BA2F1040298BF00F81C
:1004800001CB38BF00F8013B11F0030300F0EF800F
:10049000083AC0F0088051F8043B083A51F804CB00
:1004A000A0E80810F5E7121D5CBF51F8043B40F8C6
:1004B000043BAFF30080D20724BF11F8013B11F8D1
:1004C00001CB48BF11F8012B24BF00F8013B00F815
:1004D00001CB48BF00F8012B704702F0FF0343EA4D
:1004E000032242EA024200F002B84FF0000204295F
:1004F000C0F0128010F0030C00F01B80CCF1040C53
:10050000BCF1020F18BF00F8012BA8BF20F8022B86
:10051000A1EB0C0100F00DB85FEAC17C24BF00F82C
:10052000012B00F8012B48BF00F8012B70474FF05A
:10053000000200B5134694469646203922BFA0E833
:100540000C50A0E80C50B1F12001BFF4F7AF09073F
:1005500028BFA0E80C5048BF0CC05DF804EB890030
:1005600028BF40F8042B08BF704748BF20F8022B73
:1005700011F0804F18BF00F8012B7047704770478B
:1005800070472DE9F0470D4699469246044600F122
:1005900024080168880604D5E06921F01001216073
:1005A00000E00120A84201DD471B00E00027A1690F
:1005B0007A1902EB0900081AA0612078C00602D45B
:1005C0002046AFF30080002608E0D4E901211AF8A4
:1005D00006009047206A401C761C20624E45F4DBE2
:1005E0002078C0060AD52046AFF3008006E0D4E9A3
:1005F000012130209047206A401C2062381EA7F15C
:100600000107F4DC07E0D4E9012118F80500904760
:10061000206A401C2062281EA5F10105F3DC20465B
:10062000AFF300802078000602D50220BDE8F087F5
:100630000120FBE701694A1C02610878704700B598
:100640008FB0CDE901310021059105497944CDE90B
:10065000031011466846FFF73BFE0FB000BD0000D7
:10066000E5FFFFFF0A6802F8010B0A60704710B54A
:10067000203AC0F00B80B1E81850203AA0E818509A
:10068000B1E81850A0E81850BFF4F5AF5FEA027C5B
:1006900024BFB1E81850A0E8185044BF18C918C0CA
:1006A000BDE810405FEA827C24BF51F8043B40F86B
:1006B000043B08BF7047D20728BF31F8023B48BF50
:1006C00011F8012B28BF20F8023B48BF00F8012B8E
:1006D0007047754600F02CF8AE4605006946534653
:1006E00020F00700854618B020B5FFF7CBFDBDE828
:1006F00020404FF000064FF000074FF000084FF089
:10070000000B21F00701AC46ACE8C009ACE8C00919
:10071000ACE8C009ACE8C0098D46704710B5044686
:10072000AFF300802046BDE81040FFF74BBD00004E
:10073000004870472821002001491820ABBEFEE781
:10074000260002007047FEE702F076F802F0DAF8C1
:1007500001F0B2FF642002F025FCF9E770B50C4609
:10076000054602F079F820EA04012846BDE8704009
:1007700002F0D0BA704700008CB001F051FC01F0DB
:10078000ABFC00233C4A1946184601F040FC3B4DA7
:100790000026009628683A4B31460268304601F040
:1007A000B3FC01F0E3FD374F4FF0010900231A4677
:1007B00001A9386802F032FC002856D101F08CFC07
:1007C0009DF8040078B101284FD100212C4B0DF188
:1007D00005020846009601F097FC01F0C7FD0A9853
:1007E00002F0E0FB41E02868416879B300960021FF
:1007F0000268234B084601F087FC002420E02249D0
:10080000097800968C420FD1200100F1100808F001
:10081000FF011B4B1DA2002001F076FCCDF80090DB
:1008200008F0FF01286802E021011031C9B200EB95
:100830008400134B80680268102001F065FC641C82
:10084000286890F82810A142D9DC0EE0FFE70023C9
:10085000094A1946184601F0DAFB0096286800217B
:10086000074B0268084601F04FFC01F07FFD0120B4
:1008700002F098FB9AE7000004540008B40000203E
:10088000F44F0008AC000020B00000203E00000043
:1008900072B6FEE72DE9F84FDFF8B8910024A9F110
:1008A000040B23460F2709F1040AABF1040EC9E03B
:1008B0000125A5402A40AA427DD1674ED1F804C047
:1008C000ACEB0608B44532D014DCBCF1030F3AD0CF
:1008D00009DCBCF1000F2AD0BCF1010F1CD0BCF127
:1008E000020F31D11DE0BCF1110F17D0BCF1120F76
:1008F0002AD119E0B8F5881F19D006DCB8F5803F79
:1009000015D0B8F5801F1FD111E0B8F5001F0ED02B
:10091000B8F5041F18D10AE0CB6815E0CB681B1DA1
:1009200012E0CB6808330FE0CB680C330CE08B6827
:100930002BB1012B4FF0080303D0456104E00423E1
:1009400002E0056100E00023FF2A01D8064601E02D
:1009500000F104064FEA840501D9A5F12005D6F877
:10096000008007FA05FC28EA0C0803FA05F548EAB6
:100970000508C6F800804D68ED0062D5374DAE69B8
:1009800046F00106AE61AD6924F0030605F00105ED
:100990000095334D06EB050CDCF80850A607360F22
:1009A00007FA06F825EA0805DFF8B880404503D1C4
:1009B0004FF0000817E044E0DFF8AC80404502D17A
:1009C0004FF001080FE0DFF8A480404502D14FF05E
:1009D000020808E0DFF89880404502D14FF0030894
:1009E00001E04FF0040808FA06F848EA0508CCF8D8
:1009F00008804D68D9F80060ED024D4601D51643D8
:100A000000E096432E604D68DAF80060AD0255466E
:100A100001D5164300E096432E604D68DBF8006078
:100A2000AD035D4601D5164300E096432E604D6848
:100A3000DEF80060ED03754601D5164300E09643ED
:100A40002E60641C0D682A46E5407FF431AFBDE896
:100A5000F88F00000804014000001110001002404F
:100A60000000014000080140000C0140001001405E
:100A7000001401408068084000D0012070470AB18E
:100A8000016170470904FBE7014880687047000076
:100A90000400002070B5040025D094F83D00002526
:100AA00020B984F83C50204600F04EF9242084F808
:100AB0003D002068016821F00101016020680168A3
:100AC00041F4004101602068016821F400410160A7
:100AD00000F0E8FA4D4A6168914201D84C4900E0C3
:100AE0004C49884201D2012070BD4B492368B0FBBC
:100AF000F1F15E6826F03F060E435E606368934244
:100B000006D94FF4967359434FF47A73B1FBF3F15E
:100B10002368491C1E6A26F03F063143196261684A
:100B2000914210D84900401EB0FBF1F2521CC2F3B2
:100B30000B02042A01D2042022E0B0FBF1F0401C99
:100B4000C0F30B001CE0A268F2B301EBC10303EB9E
:100B50000116431EB3FBF6F35B1C43F480431B05F5
:100B600049D092B301EBC10202EB0111401EB0FB70
:100B7000F1F0401CC0F30B0040F4804040F4004012
:100B80002168CA694CF6FF739A431043C861D4E9DF
:100B9000071001432068026822F0C002114301607F
:100BA000D4E9030101432068826848F2FF339A4385
:100BB00011438160D4E9050108432168CA6822F025
:100BC000FF021043C86001E00EE016E020680168F3
:100BD00041F0010101602564202084F83D00256377
:100BE00084F83E50002070BD01EB4106431EB3FB6C
:100BF000F6F35B1CB3E70120C2E701EB4101401EA5
:100C0000B0FBF1F0401CC0F30B00B7E7A086010079
:100C100080841E0000093D0040420F002DE9F84F7E
:100C20001F4690468A460446DDF82890FFF72CFFC1
:100C3000054694F83D0020287FD119230122404920
:100C40002046009500F04EFF002876D194F83C0035
:100C5000012872D0012084F83C0020680168C9078F
:100C600003D1016841F0010101602068016821F4AD
:100C700000610160212084F83D00102084F83E00CE
:100C800000262664C4F824806785608D20852D4861
:100C9000E0622B464A465146204600F0A9FE90B934
:100CA000206841698069009036E02A46494620461E
:100CB00000F0BEFF50B1206C042804D12068016808
:100CC00041F4007101600120BDE8F88F606A21687D
:100CD00000780861606A401C6062618D491E618510
:100CE000218D491E89B2218522685369DB435B0748
:100CF0000BD451B100781061606A401C6062608D55
:100D0000401E6085208D401E20852A46494620468B
:100D100000F0BCFE0028CED1208D0028C5D154F8AB
:100D20003D0B016841F400710160202004F81E09A8
:100D3000E67766770020C7E7FFE70220C4E70000F8
:100D4000020010000000FFFF10B586B000210091E6
:100D500001910291039100680F4988421AD10F4C0A
:100D6000A06940F00800A061A069694600F0080091
:100D70000490C020009012200190032003900848A6
:100D8000FFF788FDE06940F40010E061E06900F4DD
:100D90000010049006B010BD005400400010024046
:100DA000000C01400248816802781144816070475C
:100DB00004000020074810B5016841F010010160EF
:100DC000032000F0A7F80F2000F006F800F050F81C
:100DD000002010BD0020024030B505461F4887B0F6
:100DE000C16941F00401C161C06906A900F00400B5
:100DF000009001A800F036F90498B0B100F052F963
:100E000040001749174AB0FBF1F11748491E02602C
:100E1000416040F2E7320021C0E903218160816135
:100E200000F04CFB040003D015E000F03BF9E8E7CC
:100E30000D4800F071FB04000DD11E2000F03CF8BD
:100E4000102D07D2002229461E2000F043F8074843
:100E5000056000E0012407B0204630BD00100240CC
:100E600040420F00000800406003002008000020FE
:100E70000F4808B5816941F001018161816901F084
:100E800001010091C16941F08051C161C069002236
:100E900000F0805000900F21901E00F01BF80548D4
:100EA000416821F0E06141F00071416008BD00003F
:100EB0000010024000000140002809DB00F01F0282
:100EC000012191404009800000F1E020C0F80011AC
:100ED00070470000F0B40E4B1B680C46C3F30223AE
:100EE000C3F10705042D00D90425191D072901D2D6
:100EF000002300E0DB1E012606FA05F1491E214011
:100F000099409E40761E16403143F0BC01F073BFFD
:100F10000CED00E0064900F0070208684FF6FF03F9
:100F2000184040EA0220034A10430860704700005E
:100F30000CED00E00000FA052DE9F0470F46050032
:100F400061D0434E306800F00700B84209D23068E3
:100F500020F0070038433060306800F00700B842E6
:100F600051D128683B4C810712D5400703D56068F2
:100F700040F4E06060602878000703D5606840F4C2
:100F8000605060606068A96820F0F000084360600D
:100F90002878C00728D06868012810D02168022866
:100FA00010D0890700292EDA616821F0030101437E
:100FB0006160FFF769FD804641F288390DE02168E4
:100FC0008903EFE78901EDE7FFF75EFDA0EB08017C
:100FD000494502D90320BDE8F0876068696800F0E0
:100FE0000C00B0EB810FEFD1306800F00700B84281
:100FF0000BD9306820F0070038433060306800F0CB
:101000000700B84201D00120E5E72878400705D560
:101010006068E96820F4E0600843606028780007B1
:1010200006D56068296920F4605040EAC10060601C
:1010300000F058F86168084AC1F30311515CC840D8
:101040000649086006480068FFF7C6FE0020C2E7B0
:101050000020024000100240524900081000002009
:10106000080000200F2202600C4A536803F00303BB
:101070004360536803F0F0038360536803F4E06354
:10108000C36052684FF4E06303EAD202026104488D
:10109000006800F007000860704700000010024080
:1010A000002002400448054900684968044AC1F329
:1010B0000221515CC840704710000020001002401F
:1010C000624900080448054900684968044AC1F3B8
:1010D000C221515CC840704710000020001002403F
:1010E000624900080E4A51680E4801F00C03042BB7
:1010F00011D0082B0FD10C48C1F38343C903C05C46
:101100000AD55168084AC1F34041921E515C054A14
:101110005043B0FBF1F0704704494843704700006A
:101120000010024000127A004249000800093D0008
:101130002DE9F84F040070D02078C04DC00749D089
:101140006868C0F38100012807D06868C0F3810097
:10115000022809D16868C00306D52868800339D5FC
:1011600060680028E7D035E06068B0F5803F0BD0BC
:1011700010B1B0F5A02F11D0286820F4803028607D
:10118000286820F4802002E0286840F4803028603D
:10119000606890B1FFF778FC06460AE0286840F4E2
:1011A00080202860F0E700BFFFF76EFC801B6428FA
:1011B00073D828688003F7D50CE0FFF765FC064676
:1011C00005E000BFFFF760FC801B6428F0D82868AA
:1011D0008003F7D420789A4E80074FF001094FF032
:1011E000000839D5686810F00C0F07D06868C0F3A4
:1011F0008100022809D16868C00306D428688007E6
:1012000014D52069012808D110E02069B0B1C6F8D2
:101210000090FFF739FC074605E00AE1FFF734FCD0
:10122000C01B0228C4D828688007F7D528686169E0
:1012300020F0F80040EAC10028600DE0C6F8008008
:10124000FFF722FC074604E0FFF71EFCC01B022844
:1012500023D828688007F7D4207800072CD5794850
:10126000A169D9B1C0F80090FFF70EFC074604E071
:10127000FFF70AFCC01B02280FD8686A8007F7D561
:1012800071484FF4FA510068B0FBF1F0009000BFD4
:101290000098411E0091FAD20EE080E0C0F8008074
:1012A000FFF7F2FB074604E0FFF7EEFBC01B022846
:1012B00075D8686A8007F7D42078400760D5E86958
:1012C0000027C00008D4E86940F08050E861E86970
:1012D000012700F0805000905C480168C90513D4D4
:1012E0000168834641F480710160FFF7CDFB8246BF
:1012F00006E000BFFFF7C8FBA0EB0A0064284ED849
:10130000DBF80000C005F5D5E06801280AD008B177
:10131000052813D0286A20F001002862286A20F0EE
:10132000040002E0286A40F001002862E06841F20F
:10133000883B98B1FFF7A8FB82460BE0286A40F093
:1013400004002862EEE700BFFFF79EFBA0EB0A0156
:1013500059455AD8286A8007F6D50CE0FFF794FB68
:10136000824605E0FFF790FBA0EB0A0159454CD8F7
:10137000286A8007F6D41FB1E86920F08050E86140
:10138000E06988B36968C1F38101022944D0022869
:10139000C6F8608004D0FFF777FB044638E034E0FD
:1013A000FFF772FB074604E0FFF76EFBC01B022845
:1013B0002BD828688001F7D4206AB0F5803F05D18A
:1013C0006868A16820F4003008436860D4E9080127
:1013D0000843696821F4741108436860C6F8609096
:1013E000FFF752FB044606E025E000BFFFF74CFB89
:1013F000001B022809D828688001F7D51BE000BF30
:10140000FFF742FB001B022802D90320BDE8F88F3A
:1014100028688001F4D40EE00128F7D06868226AB9
:1014200000F48031914204D1616A00F47010884266
:1014300001D00120EAE70020E8E7000000100240A8
:101440000000424280044242100000200070004030
:101450007047704770B590F83C20012A26D00124CF
:1014600080F83C40022280F83D2003685A689D685D
:1014700022F070060A6832435A600D4B02689A42A5
:1014800008D0B2F1804F05D00A4B9A4202D00A4BE5
:101490009A4204D1496825F080031943916080F88D
:1014A0003D40002180F83C10084670BD022070BD10
:1014B000002C0140000400400008004010B504006A
:1014C00003D094F83D0010B107E0012010BD0020CA
:1014D00084F83C00204600F01EF8022084F83D000D
:1014E000211D206801F080FA012084F8460084F86C
:1014F0003E0084F83F0084F8400084F8410084F8FE
:10150000420084F8430084F8440084F8450084F8DD
:101510003D00002010BD704790F83D10012901D01A
:1015200001207047022180F83D100168CA6842F02E
:101530000102CA6000680B49884208D0B0F1804FB0
:1015400005D00949884202D00849884204D18168FF
:1015500001F00701062903D0016841F00101016093
:1015600000207047002C01400004004000080040AB
:1015700070472DE9F04104460068C66805694FF0E0
:101580000007A90713D5B10711D5F91E0161012084
:101590002077206880698007204602D0FFF7E8FFA7
:1015A00004E000F0A1F8204600F044F9277768072E
:1015B00016D5700714D521686FF004000861022069
:1015C00020772068806910F4407F204602D0FFF722
:1015D000CFFF04E000F088F8204600F02BF92777D1
:1015E000280715D5300713D521686FF0080008616A
:1015F000042020772068C0698007204602D0FFF7CA
:10160000B7FF04E000F070F8204600F013F92777E8
:10161000E80616D5F00614D521686FF010000861B1
:10162000082020772068C06910F4407F204602D04F
:10163000FFF79EFF04E000F057F8204600F0FAF8AC
:101640002777E80708D0F00706D021686FF001007F
:101650000861204600F03EF9280608D5300606D578
:1016600021686FF0800008612046FFF7F1FE6806F0
:1016700008D5700606D521686FF040000861204645
:1016800000F032F9A8060AD5B00608D521686FF037
:10169000200008612046BDE8F041FFF7DABEBDE852
:1016A000F081000000B585B0002100910191029108
:1016B00003910068B0F1804F10D10948816941F071
:1016C000040181618069694600F0040004900220F1
:1016D0000090019003900348FFF7DCF805B000BDCF
:1016E0000010024000080140704770B5044690F8B1
:1016F0003C0000260D4601280FD0012084F83C0054
:101700006AB1042A1DD0082A2FD00C2A3FD0012606
:10171000002084F83C00304670BD022070BD206877
:1017200001F0ACF92068816941F00801816120680D
:10173000816921F004018161206881692A6911436E
:1017400011E0206801F0C2F92068816941F400616C
:1017500081612068816921F48061816120688169EB
:101760002A6941EA02218161D2E7206801F0DAF9B1
:101770002068C16941F00801C1612068C16921F098
:101780000401C1612068C1692A69114311E0206820
:1017900001F0F4F92068C16941F40061C161206879
:1017A000C16921F48061C1612068C1692A6941EA87
:1017B0000221C161ACE710B5040003D094F83D00EC
:1017C00010B107E0012010BD002084F83C00204645
:1017D00000F01EF8022084F83D00211D206801F071
:1017E00003F9012084F8460084F83E0084F83F00A5
:1017F00084F8400084F8410084F8420084F84300F3
:1018000084F8440084F8450084F83D00002010BDB1
:1018100008B50068B0F1804F08D10548C16941F0B2
:101820000101C161C06900F00100009008BD000025
:10183000001002407047000010B50446022249B172
:1018400004290ED0082913D094F84100012816D09D
:10185000012010BD94F83E000128F9D184F83E2003
:101860000FE094F83F000128F2D184F83F2008E00F
:1018700094F840000128EBD184F8402001E084F87E
:1018800041200122206801F0EBF80F4920688842CE
:1018900003D1426C42F4004242642068884208D07E
:1018A000B0F1804F05D00949884202D008498842EA
:1018B00004D1816801F00701062903D0016841F0D5
:1018C00001010160002010BD002C01400004004017
:1018D0000008004000680349884201D1FFF762BA5E
:1018E0007047000000080040704770B5040004D045
:1018F00094F84100002510B106E0012070BD84F885
:101900004050204600F024F8242084F8410020684C
:10191000C16821F40051C160204601F051F92068EE
:10192000016921F4904101612068416921F02A0197
:1019300041612068C16841F40051C16065642020A4
:1019400084F8410084F842006563002070BD000007
:1019500030B585B00024009401940294039400688B
:101960001449884223D11448C16941F40031C1614E
:10197000C16901F400310491816941F00401816180
:1019800080690E4D00F004000490042000900220B5
:1019900001900320039069462846FEF77BFF08204C
:1019A000CDE90004694628460294FEF773FF05B0AE
:1019B00030BD00000044004000100240000801401B
:1019C000FEE701684A69D24352050FD46FF4806282
:1019D0004A61002140F8301F20224273817302695E
:1019E00042F0040202610173012070470020704739
:1019F000F8B50446C06A1E460D461746082807D0AB
:101A0000012805D010F5803F02D0206B122804D1A8
:101A10002068016841F480710160134600224FF094
:101A200001112046009600F05DF840B12068006882
:101A3000C00502D54FF4007020640320F8BD206972
:101A4000B0F5804F0ED00620216800EAD51040F096
:101A5000F000086133463A460B49204600F08AF808
:101A600078B902E005F0FE0000E0E8B22168086104
:101A7000054933463A46891F204600F07BF8002886
:101A8000DCD00120F8BD00000800010070B516464A
:101A90000D4604461EE02046FFF793FF08B10120E3
:101AA00070BD681C16D0FEF7EFFF801BA84200D85F
:101AB00085B920684069C04340070BD5002044F831
:101AC000300F20216173A073216941F02001216151
:101AD0002073E4E720684069C0434007DBD400205E
:101AE00070BD00002DE9F047984617460D460446A4
:101AF000C1F30746DDF820902AE000BFB8F1FF3FB0
:101B000026D0FEF7C1FFA0EB0901414502D8B8F18C
:101B1000000F1DD12068012E16D0806925EA000033
:101B20000004000C12D00020B84211D1002044F86B
:101B3000300F20216173A073216941F020012161E0
:101B400020730120BDE8F0874069E7E70120EBE75B
:101B50002068012E0AD0806925EA00000004000CEC
:101B600006D00020B842C9D00020EBE74069F3E777
:101B70000120F7E72DE9F047984616460D46044642
:101B80004FF000094FF0200AC1F3074723E0206817
:101B90004069C043400515D42068016841F40071D4
:101BA000016021686FF480604861C4F8309084F867
:101BB0003DA084F83E90216C41F00401216484F83A
:101BC0003C9021E0701C06D0FEF75EFFA0EB080001
:101BD000B04203D816B1012F1FD021E02068012F99
:101BE00015D0806925EA00000004000C18D000BF61
:101BF00044F8309F84F80DA084F80E90216941F0DC
:101C00002001216184F80C900120BDE8F087406933
:101C100025EA00000004000CEAD12068406901E0D8
:101C20002068806925EA00000004000CAFD1ECE7D1
:101C300070B516460D4604461EE02046FFF7C1FE6D
:101C400008B1012070BD681C16D0FEF71DFF801B77
:101C5000A84200D885B920684069C04300060BD56A
:101C6000002044F8300F20216173A073216941F0F6
:101C7000200121612073E4E720684069C043000629
:101C8000DBD4002070BD00002DE9F041294D4FF458
:101C90008056002431462846FEF7ECFE60B9142039
:101CA00001F080F931462846FEF7E4FE0028F9D01D
:101CB000142001F077F901244FF4004631462846FC
:101CC000FEF7D8FE60B9142001F06CF931462846C1
:101CD000FEF7D0FE0028F9D0142001F063F90224A9
:101CE000154D4FF4806739462846FEF7C3FE60B9AC
:101CF000142001F057F939462846FEF7BBFE0028AC
:101D0000F9D0142001F04EF9032431462846FEF79D
:101D1000B1FE60B9142001F045F931462846FEF7BE
:101D2000A9FE0028F9D0142001F03CF90424204633
:101D3000BDE8F081000C01400008014008B500F04A
:101D40002DF800250126144C02274FF003084FF010
:101D5000040900BF8DF80050FFF796FF012806D058
:101D6000022807D0032811D004280BD111E08DF8E8
:101D7000006001E08DF800700123002269462068B0
:101D800001F0AAF90A2001F00DF9E3E78DF80080CF
:101D9000F2E78DF80090EFE7A800002030B585B09D
:101DA0000024134801940394816941F00401816186
:101DB000816901F004010491816941F008018161A8
:101DC0008069012500F0080004904FF41040009055
:101DD000694602950748FEF75DFD4FF404408DE823
:101DE000310069460448FEF755FD05B030BD0000DE
:101DF00000100240000C01400008014010B508210D
:101E00000846FEF7ABFC3D21112000F083FF862140
:101E1000172000F07FFF7F21262000F07BFF1E218E
:101E20002D2000F077FF00212C2000F073FF8D2182
:101E30002A2000F06FFF3E212B2000F06BFF402195
:101E4000152000F067FF012000F0E9FFBDE8104019
:101E500000F0B8BA10B500F011FF044A00210448A0
:101E600001F06EF90349086010BD00001C4900082C
:101E700059290008000000200D4808B5816941F08B
:101E800020018161816901F020010091816941F0A7
:101E900004018161816901F004010091816941F0CF
:101EA00008018161806900F00800009008BD000011
:101EB000001002400D4810B50B4901600C4941600B
:101EC00000214FF480428160C0E9031241618161C9
:101ED000C1610162FEF7DEFD002803D0BDE81040BD
:101EE000FEF7D6BC10BD0000005400407C0200206C
:101EF000A086010010B58AB0002407941C21684612
:101F00000894FEF714FB16484FF08041016047210A
:101F1000C0E9011444F61F61C0E903148461FFF7AE
:101F20004AFC08B1FEF7B4FC079407A90C480894D2
:101F3000FFF790FA08B1FEF7ABFC6020CDE9000492
:101F400002940422694606480494FFF7CEFB08B1C8
:101F5000FEF79EFC0248FFF7A5FB0AB010BD00008B
:101F6000D00200200C4810B50A4901604FF4E1315D
:101F70004160002181600C22C160C0E904128161CE
:101F8000C161FFF7B2FC002803D0BDE81040FEF7A6
:101F90007FBC10BD0044004018030020FEE7000095
:101FA0008CB000F04BFF0024164D174E8DF800400A
:101FB0008DF8284000231A460AA9286801F02EF857
:101FC000D8B99DF8280001280FD0022804D0032892
:101FD00005D004280BD105E000F0D2FF07E000F0A7
:101FE000BFFF04E000F0A8FF01E000F099FF01232B
:101FF00000226946306801F06FF8142000F0D2FF2B
:10200000D6E70000A8000020AC000020FEE71CB5C9
:102010005478CDE900431378526800F03FF91CBDB5
:1020200010B5AE2000F0DAF8202000F0D7F810202C
:1020300000F0D4F8B02000F0D1F8C82000F0CEF8BD
:10204000002000F0CBF8102000F0C8F8402000F08D
:10205000C5F8812000F0C2F8DF2000F0BFF8A12011
:1020600000F0BCF8A62000F0B9F8A82000F0B6F8FF
:102070003F2000F0B3F8A42000F0B0F8D32000F027
:10208000ADF8002000F0AAF8D52000F0A7F8F02065
:1020900000F0A4F8D92000F0A1F8222000F09EF86A
:1020A000DA2000F09BF8122000F098F8DB2000F016
:1020B00095F8202000F092F88D2000F08FF8142081
:1020C00000F08CF800F008F800F050F9BDE810407E
:1020D000AF2000F083B800004FF480610148FEF7A4
:1020E00004BA0000FD1C00203CB51C78059D203A78
:1020F000CDE900455D68E41D5B78E408544303FBCB
:10210000045200F0CBF83CBD2DE9FF4F1878597808
:10211000C01DC00800254843001D83B01C4617465B
:1021200000F0FF0A2AE07819814600F04BFE5FEAD2
:10213000000826D000260AE06168484606FB0A1B14
:1021400042465946FEF734F9F0B1761CF6B2207AD1
:10215000B042F1D810980090E368B8F1010F20D098
:10216000DDE903012022FFF7BFFFE0684178039813
:102170000844C0B2039005EB080085B2785D0028E2
:10218000D1D107B0BDE8F08F10992078CDE90001DA
:102190006378DDE903010BF1040200F07FF8617858
:1021A000E5E77A5DDDE90301FFF79EFFE0686D1C5E
:1021B000ADB2417803980844C0B20390DEE7000056
:1021C00008B54FF0FF3200920B46024678210248D4
:1021D000FEF724FD08BD00007C0200200249487083
:1021E00002210148FFF7ECBF960000202DE9FC41D9
:1021F00080460720CDE9000301F00704CD0816460C
:1022000002FA04F01F46C2B223464146284600F0B7
:1022100089F8002C0CD0601EC0B2CDE90007C4F1D3
:10222000080026FA00F2681C0023414600F07AF804
:10223000BDE8FC812DE9FC4301F007061446CD08FA
:102240009846814601F0070106EB080204FA01F006
:10225000099F082A16D90721CDE90017C2B23346D3
:102260004946284600F05EF808EB06000938C0B27F
:10227000CDE90007C6F1080024FA00F2681C00232B
:10228000494607E0521ED1B2CDE90017C2B233462B
:102290004946284600F046F8BDE8FC832DE9FF4F8B
:1022A00082B01D460F989346C70800F00700884685
:1022B0000026019018E0029800240BEB060A00EBC0
:1022C00006090DE004FB05F0109B10F80A2008EB4E
:1022D000C400C1B209F0FF00FFF788FF641CE4B23C
:1022E000BC42EFD3761CF6B2AE42E4D3019800288C
:1022F00015D005FB07F6002408EBC7070DE0109882
:102300000090311902981BF801202044F9B2C0B2A4
:10231000019BFFF78FFF641CE4B2AC42EFD306B021
:10232000BDE8F08FF0B50828DDE9056419D28029F1
:1023300017D20CB1D243D2B2FF25761C05FA06F6AD
:10234000C3F10803084F46EA0204DD4007EBC0175B
:10235000044B785CB2432C43AA4320401A701043CC
:102360007854F0BD94000020FD1C00202DE9F041C0
:10237000114E402002253070002406F1810700BF75
:1023800004F1B000C0B2FFF729FF2846FFF726FF8F
:102390001020FFF723FF07EBC4118022701CFEF70B
:1023A00057F881210448FFF70BFF641CE4B2082CA6
:1023B000E6D3BDE8F08100007C1C0020032114203E
:1023C000FEF7CCB910B5142000F046FA800705D10D
:1023D0000321BDE81040142000F0B2BA10BD70B562
:1023E0000646082188B000240846FEF7B7F9002108
:1023F0000D2000F08FFC80210E20FEF7AFF9932016
:102400008DF8040020208DF8050006A801AB00908F
:10241000022219460C2000F017F805000DD100210A
:1024200001A8425C7254425C491C5440C9B2042960
:10243000F7D3405CA04200D0FE2580210E2000F0A2
:102440007FFA08B0284670BD2DE9FF5F0027FE2502
:10245000DDF838A016468B468146B8460C2805D0D4
:10246000B9F10E0F05D11227102001E07727302097
:10247000804647F08001022000F04CFC80210420BF
:10248000FEF76CF90021012000F044FC80210A20B5
:1024900000F056FA002405E01BF80410092000F0B3
:1024A00039FC641CB442F7D34946012000F032FCE9
:1024B000B9F10C0F03D180210D2000F041FA4FF447
:1024C000FA66042000F0C8F90446761E04D0E0073E
:1024D00002D114EA080FF4D080210D20FEF73EF956
:1024E00036B1062000F0B8F910F01B0F0CD0FE2515
:1024F00080210C2000F024FA0021012000F00AFCC9
:1025000004B02846BDE8F09F00253C40E00700D01D
:10251000FF25B9F10C0FEBD10A2000F09DF904461C
:102520000C2000F099F910F007004FEAC40101D027
:1025300008390144CAF8001024B1122C04D912241D
:10254000002603E00124FBE7002605E0092000F057
:1025500083F903998855761CA642F7D3C8E7000093
:10256000F0B585B01F4800240294816941F0040150
:102570008161816901F004010491816941F00801E0
:1025800081618069012500F0080004904FF400602B
:10259000CDE90005144F0226694603963846FEF73A
:1025A00079F9A802CDE90004694638460294FEF79D
:1025B00071F90096CDE9015469463846FEF76AF98B
:1025C0000095CDE9015469463846FEF763F980204D
:1025D000CDE90005694602940448FEF75BF905B0B1
:1025E000F0BD000000100240000C01400008014056
:1025F00030B50C460546082187B00846FEF7AEF810
:1026000007210D2000F086FB0321142000F098F92B
:1026100006A801AB00908DF80450012219460C2049
:10262000FFF712FF10B90699102902D0FE2007B05B
:1026300030BD9DF8041021709DF805106170F6E71B
:1026400070B501221B4DD40221462846FEF717FA29
:10265000012000F0E4FB002221462846FEF70FFA95
:10266000012000F0DCFB012221462846FEF707FA94
:102670000A2000F0D4FB0F21012000F04BFB3D218C
:10268000112000F047FB1E212D2000F043FB00210C
:102690002C2000F03FFB8D212A2000F03BFB3E2147
:1026A0002B2000F037FB4021152000F033FB0020E9
:1026B00070BD0000000C01402DE9F0475549522043
:1026C000FFF796FF544C554D4FF0000901264FF48B
:1026D000966820B94F48001FFFF781FE18B3002FFE
:1026E00072D0012F05D0022F03D0032F01D0042F69
:1026F00069D126703A464AA1601CFDF7D5FDC4F8A1
:102700002480012300224449286800F0E5FC00F001
:10271000EBFA84F800902868BDE8F0470123002216
:102720003D4900F0D9BC3B49091FA1F10C000A78D2
:1027300003789A420DD14B784778BB4209D18B7808
:102740008778BB4205D1CB78C078834201D101277D
:10275000CFE730480C3803789A4210D14F7890F880
:1027600001C067450BD18F7890F802C0674506D14C
:10277000CF7890F803C0674501D10227B9E79A42A4
:102780000DD14B784778BB4209D18B788778BB4213
:1027900005D1CB78C078834201D10327A9E71D4832
:1027A000083803789A420FD14A7843789A420BD17D
:1027B0008A7883789A4207D1C978C078814203D158
:1027C000042796E700E022E05A2000F0A7F82670E0
:1027D00016A1601CFDF718FEC4F8248046460123AC
:1027E00000220D49286800F077FC304600F0DAFB43
:1027F00000F07AFA84F80090012300220649286844
:1028000000F06AFCBDE8F047002000F087B8BDE8A2
:10281000F08700007802002000210020AC0000209A
:10282000436172643A2025640000000043617264D1
:10283000204572726F72210010B5FFF791FEFFF70D
:10284000FFFEFFF7BBFD012000F0E9FAFFF7BAFD3C
:10285000BDE81040FFF7D2BA2DE9F041DFF89C80C7
:1028600005460024224680214046FEF708F97E20D6
:1028700000EA4500224D40F0800708260022012191
:102880002846FEF7FCF8380601D5012200E00022B8
:1028900002212846FEF7F3F8012211462846FEF7EA
:1028A000EEF87806070E761E16F0FF06E6D108262B
:1028B000F701002201212846FEF7E1F86006040E28
:1028C000012211462846FEF7DAF839462846FEF777
:1028D000D1F8012801D144F00104761E16F0FF065C
:1028E000E7D1012280214046FEF7C9F801221146B6
:1028F0002846FEF7C4F82046BDE8F08100080140F4
:10290000000C014010B504210348FEF795FFBDE817
:102910001040002000F002B8D0020020B42800D9F6
:10292000B4204FF4FA614843B421B0FBF1F00349FD
:1029300000F5FA7080B2096888637047D002002001
:1029400070B50C460546FFF787FF40EA04012846AC
:10295000BDE8704000F0DEB9012000F023FBFBE78A
:1029600010B54FF0E020006901F022FE012803D0ED
:10297000BDE8104001F0E2BA10BD30B58FB028219B
:102980006846FDF7D4FD14210AA8FDF7D0FD01210A
:102990000804CDE900100024029402250491CDE939
:1029A00007504FF4E01009906846FEF7C1FB08B1EC
:1029B00072B6FEE70F20CDE90A054FF48060CDE93D
:1029C0000C4002210AA80E94FEF7B6FA002801D0A6
:1029D00072B6FEE70FB030BD704700000148FEF749
:1029E000C8BD000060030020F0B50268194B1A4C06
:1029F0001A4D4FF08047984205D0B84203D0A0420C
:102A000001D0A84203D122F070064A6832439842AE
:102A100005D0B84203D0A04201D0A84203D122F48D
:102A20004074CA6822434C6922F08002224302604B
:102A30008A68C2620A688262984201D109690163A8
:102A4000012141610169C90703D0016921F0010138
:102A50000161F0BD002C014000040040000800406E
:102A600010B501F01F030121046A99408C430462F0
:102A7000016A9A401143016210BD000030B5036A3B
:102A8000026A22F0010202624268846924F073053E
:102A90000C682C4323F002058B682B430A4DA84297
:102AA0000BD123F00805CB6822F440722B434D690B
:102AB00023F0040315438A692A434260846149680C
:102AC0004163036230BD0000002C014030B5026A52
:102AD000036A23F010030362436884690D6824F4D9
:102AE000E64444EA05248D6822F0200242EA0512F9
:102AF0000B4DA8420ED1CD6822F0800242EA0512A9
:102B00004D6923F4406343EA85038D6922F0400256
:102B100043EA85034360846149688163026230BD92
:102B2000002C014030B5036A026A22F4807202620E
:102B30004268C46923F4007324F073050C682C43C5
:102B40008D6843EA05230C4DA8420ED1CD6823F4CD
:102B5000006343EA05234D6922F4405242EA05121C
:102B60008D6923F4806342EA05124260C4614968BA
:102B7000C163036230BD0000002C014030B5046A1F
:102B8000026A22F4805202624268C3690D6823F42B
:102B9000E64343EA05238D6824F4005444EA0534EF
:102BA000064DA84204D14D6922F4804242EA8512C2
:102BB0004260C36149680164046230BD002C014079
:102BC00070B5044600680169E26821F44051114380
:102BD00001612169A0680843616908432168CA68E6
:102BE00041F20C639A430243CA6020684169A269BA
:102BF00021F44071114341611E492068884202D18D
:102C0000FEF760FA01E0FEF74DFA00EBC00101EBC0
:102C10000012606864218000B2FBF0F3B3FBF1F3B3
:102C20006FF018067343B2FBF0F5B2FBF0F605EB5C
:102C30008305322303EB0515B5FBF1F5B6FBF1F681
:102C400005F0F00505EB0615B2FBF0F6B2FBF0F06F
:102C5000B0FBF1F06FF01802504306EB800003EB7D
:102C60000010B0FBF1F0216800F00F0028448860EC
:102C700070BD000000380140FEE7000010B50121E2
:102C80000022084600F0FCF9114C002228212061A6
:102C9000022000F0F5F960610E4A00210E4800F0B4
:102CA0004FFA0C4A2060243200210C4800F048FA08
:102CB000084A606048320021094800F041FA054A9C
:102CC000A0606C320021074800F03AFAE06010BDC5
:102CD000980000200C5400083D1D0008A11F0008AA
:102CE000790700084907000808B569465220FFF730
:102CF0007FFC50B169465220FFF77AFC28B1694643
:102D00005220FFF775FC002803D10A2000F087F855
:102D1000EBE708BD2DE9F041284C0E4605460022A0
:102D200001212046FDF7ABFEDFF8948000228021D0
:102D30004046FDF7A4FE7E2000EA45070825380638
:102D400001D5012200E0002202212046FDF797FE76
:102D5000012211462046FDF792FE7806070E00225A
:102D600001212046FDF78BFE6D1E15F0FF05E6D113
:102D70000825300601D5012200E00022022120466C
:102D8000FDF77DFE012211462046FDF778FE700614
:102D9000060E002201212046FDF771FE6D1E15F082
:102DA000FF05E6D1012280214046FDF768FE20465E
:102DB000BDE8F04101221146FDF761BE000C014063
:102DC000000801400078010601D401207047062167
:102DD000B1EB501F01D1022070470E21B1EB101F43
:102DE00001D1032070471E21B1EBD00F01D1042087
:102DF0007047002070470907090E002804DB00F126
:102E0000E02080F80014704700F00F0000F1E0208F
:102E100080F8141D7047704770477047704710B5B1
:102E200000214EF6602405E0224602235B1C9342FB
:102E3000FCD3491C8142F7D310BD00002D4810B5CA
:102E4000A0F1300100F1900491F8282001EB8202FA
:102E5000906011F8282F521C0A7090F8282000F179
:102E6000300100EB8202916090F82820521CD3B20E
:102E700080F8283000EB830300F160029A6090F83C
:102E800028305B1CDBB280F8283000EB83039C60A9
:102E900010F8283F5B1C037091F8283001F1900076
:102EA00001EB8303986091F8280001F1C003401CF6
:102EB000C0B281F8280001EB8000836011F8280F70
:102EC000401C087092F8281002F1C00002EB81014A
:102ED000886092F8280002F1F001401CC0B282F82C
:102EE000280002EB8000816012F8280F401C10704F
:102EF00010BD0000E8000020FDF75CFFFFF73DFD7E
:102F0000FEF7BAFFFFF72EF8FEF7D4FFFEF7F2FF49
:102F100000F056F8FEF79EFF00F064F8FEE70000B0
:102F2000044841684968002902D041604178017035
:102F300070470000B00000200848416891F8282040
:102F400042B1027801EB8201896841604270002140
:102F500001707047C86A0028FBD00047B00000200D
:102F60000648416891F82810002906D00278521CC2
:102F7000B2FBF1F301FB132101707047B000002098
:102F80000749486890F82800002807D00A78521EA0
:102F9000024492FBF0F300FB13200870704700001E
:102FA000B000002010B5EFF3058111B16FF00504FA
:102FB00003E0002408B100F087FE204610BD0000A9
:102FC000EFF3058010B16FF0050070470448016809
:102FD00011B14FF0FF3070470121016000207047B0
:102FE0006400002010B5EFF3058010B16FF005000C
:102FF00010BD08480168012902D04FF0FF3010BD14
:10300000054A002182F8141D0221016000F0C4FE6F
:10301000002010BD640000200BE000E0F8B51D4664
:103020006FF003026FF002064FF00004EFF3058328
:10303000A3B1F0B1E9B1E5B9002200926A4601F00E
:10304000D7F9012817D10098B0B10C494FF0805042
:103050000860BFF34F8FBFF36F8F0DE048B141B1F0
:103060002A4601F029F9012806D025B16FF00104A4
:1030700002E0144600E034462046F8BD04ED00E0CE
:10308000F8B514464FF00005EFF3058212BB08B304
:1030900001B3A4B1D4E9023263B1502A1AD3226930
:1030A000C2B1676900FB01F6B74213D3009500F087
:1030B0007CFF07E072B9226962B9626952B90022E5
:1030C00000F052FF050005D00CB1216800E000219E
:1030D00000F0C4FD2846F8BDF8B51D466FF00302A8
:1030E0006FF002064FF00004EFF30583ABB100B3BD
:1030F000F9B1F5B90022134600926A4601F07CF856
:10310000012818D10098B8B10C494FF080500860E0
:10311000BFF34F8FBFF36F8F0EE050B149B1002363
:103120002A4600F0B9FF012806D025B16FF001044E
:1031300002E0144600E034462046F8BD04ED00E00D
:103140002DE9FF414FEA01034FF00005EFF3058140
:10315000039549BB40B38027182100244AB3166861
:1031600006B1344696691EB13146761E382E02D21B
:103170001679F60703D0002004B0BDE8F081566947
:1031800006B1B708D2F808C0BCF1000F0DD0D56861
:103190005C2D18D312693AB136B18DE806103A4663
:1031A000214601F0DAF903900DE0D6685EB91269A4
:1031B0004AB903AACDE90012BAB2214601F0A0F93A
:1031C000012800D003950398D6E700002DE9F041CF
:1031D000134C0F460546E6682068001D00F040FCD1
:1031E000681C07D137B12168BDE8F0410D48091DC1
:1031F00000F086BC20683544B5424560216805D2A0
:10320000A06BBDE8F041091D00F062BC606B091DB8
:1032100000F05EFCA06A854200D2A562BDE8F081A4
:1032200014000020980800202DE9F041054600F028
:1032300073FC2D4CA068401CA06020682B4F10B17F
:10324000606930B32BE02560A068012827D10026F3
:1032500006EB860007EB800000F02CFC761C382E75
:10326000F6D3234800F026FC2148143000F022FC5D
:103270001F48283000F01EFC1D483C3000F01AFCAE
:103280001B48503000F016FC194860631430A063EE
:1032900005E02068E96AC06A884200D82560606A53
:1032A000401C60626864E86A2169884200D9206134
:1032B00000EB800007EB8000291D00F021FC00F0EE
:1032C0004BFC606900280CD02068E96AC06A88421B
:1032D00007D208494FF080500860BFF34F8FBFF30B
:1032E0006F8FBDE8F081000014000020E80300208B
:1032F0004808002004ED00E038B500F00DFC104C4B
:103300002068C8B90F4800F0D5FB0E48143000F013
:10331000D1FB0C48E060143020610A4B0020F03BE8
:10332000009003F1500210210A2000F03EFE2060C0
:1033300010B105A100F092FCBDE8384000F00CBCD3
:10334000500000209C090020546D725100000000C4
:1033500030B4026C0B46002A0BD0C1681144C16026
:103360008468A14201D30168C16030BC1846FDF7F2
:103370006FB830BC70472DE9F041856B17460446A5
:103380000026026C82B1C7B1E068FDF761F8E16820
:10339000206C091AE1602268914202D2A168081AE1
:1033A000E060022F16D017E02068A8B9A06801F0ED
:1033B00077F906460020A0600EE06068FDF748F847
:1033C000216C606808446060A168884204D320686A
:1033D000606001E005B16D1E6D1CA5633046BDE85F
:1033E000F08110B5044690F8590058B101280CD06E
:1033F00002280FD0502080F31188BFF34F8FBFF306
:103400006F8FFEE7206B00F0BBFB2046BDE810404D
:1034100000F0B6BB10BD000010484FF440614207F9
:1034200006D0C01D0D4920F00700411AC1F54061CA
:103430000B4A00230144C2E900030839183A21F07D
:10344000070111604B600B600B1AC0E90013936019
:103450004FF0004053605061704700007C10002026
:1034600080000020144E154CA6F29C474FF0805867
:10347000DFF84C9012E000BF00F04EFBF068C5682A
:10348000281D00F0EDFAA068401EA0606068401E94
:10349000606000F061FB2846FFF7A3FF606800282A
:1034A000EAD138680128F9D9C9F80080BFF34F8FF5
:1034B000BFF36F8FF2E700008408002014000020A3
:1034C00004ED00E070B51D46049C51B1C4F8002025
:1034D000C4E90F010121204600F09AFD84F84C5008
:1034E00070BD2460F4E700002DE9F05F8846DDE957
:1034F0000B941546834691009A460A9EA522206B9E
:10350000FCF7EBFF6FF00301206B01EB8501084432
:1035100020F00707780707D0502080F31188BFF309
:103520004F8FBFF36F8FFEE70025B8F1000F0FD06C
:103530005FF00000221818F8001082F8341018F814
:10354000001011B1401C1028F4D384F8435001E05E
:1035500084F83450382E00D33726E662C4E9136568
:10356000201D00F0B2FA04F1180000F0AEFA246158
:10357000C6F138006462A061656584F8585052460F
:103580005946384600F05AFA2060B9F1000F01D0D0
:10359000C9F80040BDE8F09F30B5114900E0114680
:1035A0000A688242FBD34B685C18844203D14068AE
:1035B00018444860084643681C18944209D1084CD6
:1035C000183C2468A24209D052681A4442600A6832
:1035D00012680260814200D0086030BD0460F9E7E3
:1035E0008000002070B5002441600B4D00619142C5
:1035F00006D8D11A8269914206D2011D286907E0D6
:103600009A4203D2994201D3012403E0011DE868E4
:1036100000F05EFA204670BD5000002010B5044650
:1036200000F07AFAA06B28B15FF0000400F094FA81
:10363000204610BD0124F9E730B589B03C4D6EE05D
:103640000498002806DADDE90601059A90470498F7
:10365000002864DB069C606910B1201D00F000FAB0
:1036600003A800F0D7F8024604980A2857D2DFE8EA
:1036700000F00505052D334A05052D3394F8280083
:1036800040F0010084F828000599A069059B0144D9
:103690002046FFF7A7FF68B3216A2046884794F8C1
:1036A000280040073BD5002000900598A169002321
:1036B00042181946204601F0FDF8D8B9502080F391
:1036C0001188BFF34F8FBFF36F8FFEE714F8280FF9
:1036D00020F00100207022E094F8280040F0010062
:1036E00084F828000598A06128B181181346204667
:1036F000FFF778FF13E0502080F31188BFF34F8F5E
:10370000BFF36F8FFEE794F82800810703D42046AB
:1037100000F036FA03E020F0010084F828000022CF
:1037200004A9286800F0C8FD002889D109B030BD7F
:10373000500000202DE9FC410F46054600F070FBCB
:1037400001A800F067F80446019818B101F020F8CC
:10375000BDE8FC81254EAFB130690068D0B30027C9
:10376000291B3A46306800F08DFA01F011F8002864
:10377000EED11F494FF080500860BFF34F8FBFF369
:103780006F8FE5E7A542EBD801F002F8F068274615
:10379000C068C468201D00F063F994F82800410750
:1037A00019D5A0692B4641193A462046FFF71AFF62
:1037B000A8B100200346014600902A46204601F0A9
:1037C00079F860B9502080F31188BFF34F8FBFF3B1
:1037D0006F8FFEE707E020F0010084F82800216ADF
:1037E00020468847B4E70127BAE7000050000020D0
:1037F00004ED00E00648416B096829B1416BC968D6
:10380000C9684968816270474FF0FF31FAE70000EC
:103810001400002070B5054600F0D8FE064E0446A0
:10382000B068844203D200F009F8012000E00020D3
:1038300028602046B46070BD50000020F8B5194DD6
:1038400020E0C068C4680668201D00F009F9216AFC
:103850002046884794F82800400713D5A0693044D3
:10386000B04206D924616060211DE86800F030F99B
:1038700008E000200346014600903246204601F051
:1038800019F838B1E86801680029DAD12969C5E971
:103890000310F8BD502080F31188BFF34F8FBFF3A2
:1038A0006F8FFEE75000002008484068401C4FF032
:1038B000500080F3118804D0BFF34F8FBFF36F8F98
:1038C000FEE7BFF34F8FBFF36F8FFEE78800002046
:1038D000074CE068016841B1C0680021D0F80000E1
:1038E000FFF728FFFFF7A8FEF3E701210020F7E725
:1038F000500000202DE9F041044600F00DF994F944
:10390000455004F1240609E0606A48B1304600F0F1
:1039100007FF08B100F006FA6D1E6DB2002DF3DC52
:103920004FF0FF3684F8456000F016F900F0F4F827
:1039300094F9445004F1100709E0206948B1384671
:1039400000F0EEFE08B100F0EDF96D1E6DB2002D35
:10395000F3DC84F84460BDE8F04100F0FDB80000FD
:103960002DE9F0410546002700F05AFA324E306842
:1039700008B9FFF751FD706905424ED1C5B308354E
:1039800068070ED005F00700C0F10800054468077D
:1039900007D0502080F31188BFF34F8FBFF36F8F94
:1039A000FEE72DB37068854237D8234818300146AA
:1039B0000C6801E020460C466168A94202D22168E9
:1039C0000029F7D131688C4227D00768216801604F
:1039D00060680837411B10290FD96019420708D0C9
:1039E000502080F31188BFF34F8FBFF36F8FFEE736
:1039F00013E041606560FFF7CFFD61687068401AB1
:103A00007060B268904200D2B060706901430020DB
:103A1000C4E90001F068401CF06000F0B9FE7807CE
:103A200007D0502080F31188BFF34F8FBFF36F8F03
:103A3000FEE73846BDE8F0816800002010B5031F9E
:103A40004FF080741C601B1F21F001011960191FC9
:103A5000024B0B60143940380A6010BDA9380008C9
:103A6000D0E9013201699A60D0E901235A604A68BD
:103A7000824201D182684A60002202610868401EC9
:103A80000860086870470000034B036003F15C00A6
:103A90000860802010607047C4090020044B036058
:103AA00003F15C0008604FF4807010607047000004
:103AB000200C002000F108014FF0FF32C0E9011294
:103AC000C160016100210160704700210161704700
:103AD00030B50B685A1C02D000F1080202E00269FE
:103AE00004E02246546825689D42FAD953684B6029
:103AF00099608A60516008610168491C016030BDAD
:103B000042684A6093688B6093685960916008616D
:103B10000168491C01607047502080F31188BFF391
:103B20004F8FBFF36F8F0A494868401C48600128D7
:103B30000CD10848006810F0FF0F07D0502080F328
:103B40001188BFF34F8FBFF36F8FFEE77047000000
:103B50008800002004ED00E00849486828B1401EB4
:103B6000486001D180F311887047502080F311889C
:103B7000BFF34F8FBFF36F8FFEE700008800002078
:103B800070B500282AD0164DA0F108046068696954
:103B9000084207D1502080F31188BFF34F8FBFF345
:103BA0006F8FFEE722683AB1502080F31188BFF38F
:103BB0004F8FBFF36F8FFEE78843606000F030F9EE
:103BC00060686968084468602046FFF7E5FC28697A
:103BD000401C2861BDE8704000F0DABD70BD0000F7
:103BE000680000204FF0E02000210161816105495B
:103BF0004FF47A720968B1FBF2F1491E4161072165
:103C0000016170471000002010B5FCF729FB114935
:103C100010280ED300F1E02090F8F0030A789042CB
:103C200007D2502080F31188BFF34F8FBFF36F8FFF
:103C3000FEE709480068896800F4E060884207D917
:103C4000502080F31188BFF34F8FBFF36F8FFEE7D3
:103C500010BD0000880000200CED00E010B5084BFE
:103C6000002200BF53F832401CB1521C082AF9D37D
:103C700010BD43F8321003EBC201486010BD0000D4
:103C8000A803002070B515460E460446FFF744FF12
:103C900094F944100020491C01D184F8440094F99F
:103CA0004510491C01D184F84500FFF755FFA06B72
:103CB00028B92A46314604F1240000F051F8204684
:103CC000BDE87040FFF716BE10B5020014D00F48D3
:103CD000006B38B1502080F31188BFF34F8FBFF3D2
:103CE0006F8FFEE700F09CF800211046FFF76EFA98
:103CF00000F04EFD002807D105494FF080500860C4
:103D0000BFF34F8FBFF36F8F10BD00001400002072
:103D100004ED00E002490A6A0260C9684160704728
:103D20001400002001490120C861704714000020E0
:103D300010B50C4650B1094909681831FFF7C8FEA3
:103D40002046BDE810400121FFF740BA502080F323
:103D50001188BFF34F8FBFF36F8FFEE71400002071
:103D600070B514460D4668B10A4909681831FFF765
:103D7000C7FE0CB14FF0FF3521462846BDE8704024
:103D8000FFF724BA502080F31188BFF34F8FBFF3A1
:103D90006F8FFEE71400002030B587B00024039435
:103DA00005AA04A903A80494FFF76EFEDDE9030148
:103DB0000094CDE90110002315A11748059A00F0E1
:103DC000CCFB164D0028E8621FD000F043FD01280F
:103DD00009D0401C19D1502080F31188BFF34F8FB8
:103DE000BFF36F8FFEE7502080F31188BFF34F8F32
:103DF000BFF36F8F4FF0FF30A86201206861EC6065
:103E000007B0BDE8304000F045B807B030BD000055
:103E100049444C45000000006534000814000020AF
:103E20000248016B491C0163704700001400002028
:103E3000164810B5016B11B10121C16110BD0021FF
:103E4000C1610169124A01E0B9B1491E01EB810368
:103E500052F82330002BF7D001EB810302EB8302F1
:103E600002F1080453685B685360A34201D15B68A8
:103E70005360DA680260016110BD502080F3118840
:103E8000BFF34F8FBFF36F8FFEE7000014000020D9
:103E9000E80300201CB5264908780190FF2008702F
:103EA00008788DF800009DF800009DF8002000F0D3
:103EB000F000904207D0502080F31188BFF34F8F5D
:103EC000BFF36F8FFEE79DF800001A4C00F0500022
:103ED00020700720A06005E09DF8002052008DF8BA
:103EE0000020401E9DF800201206F5D4A060032893
:103EF00007D0502080F31188BFF34F8FBFF36F8F2F
:103F0000FEE74FF44070A060019808700A4801680D
:103F100041F470010160016841F070410160FFF7F8
:103F200061FE00206060FCF765F900201CBD000008
:103F300000E400E08800002020ED00E010B55020F3
:103F400080F31188BFF34F8FBFF36F8F00F044FBF6
:103F500018B104494FF080500860002080F31188A8
:103F600010BD000004ED00E0F8B517460E46050050
:103F700013D005FB06F05030FFF7F2FC04000AD026
:103F8000002084F8460004F150023B4631462846A2
:103F90000094FFF797FA2046F8BD502080F311886F
:103FA000BFF34F8FBFF36F8FFEE738B5049D18B195
:103FB00053B1CAB181B120E0502080F31188BFF322
:103FC0004F8FBFF36F8FFEE7502080F31188BFF350
:103FD0004F8FBFF36F8FFEE7502080F31188BFF340
:103FE0004F8FBFF36F8FFEE739B1502080F31188F8
:103FF000BFF34F8FBFF36F8FFEE750241C460123A2
:1040000084F846302B460094FFF75CFA204638BD12
:1040100070B50D46040025D0FFF77EFDD4E90F20D2
:10402000216802FB0011A1600021A1632168616089
:104030000A46D4E90F01401E00FB0121E160214640
:104040004FF0FF3001F8440F487004F110008DB1BB
:10405000FFF730FD04F12400FFF72CFDFFF77CFD96
:10406000012070BD502080F31188BFF34F8FBFF344
:104070006F8FFEE721690029F0D000F051FB002886
:10408000ECD004494FF080500860BFF34F8FBFF36E
:104090006F8FE3E704ED00E02DE9FF4782B01D4696
:1040A0008A464FF00008040003D0BAF1000F08D090
:1040B00011E0502080F31188BFF34F8FBFF36F8F53
:1040C000FEE7206C38B1502080F31188BFF34F8F8A
:1040D000BFF36F8FFEE7022D0AD1E06B012807D0F6
:1040E000502080F31188BFF34F8FBFF36F8FFEE72F
:1040F00000F05EFA3F4F4FF000094FF0805648B98C
:10410000049838B1502080F31188BFF34F8FBFF36C
:104110006F8FFEE7FFF700FDA06BE16B884207D3CE
:10412000022D05D00498D0B1B8F1000F1AD01EE0CE
:104130002A4651462046FFF71EF9616A19B104F17B
:10414000240000F0EDFA20B13E60BFF34F8FBFF3C3
:104150006F8FFFF701FD012006B0BDE8F087FFF784
:10416000FBFC22E06846FFF7D5FD4FF00108FFF7A2
:10417000F3FCFFF755FEFFF7CFFC94F94400401C19
:1041800001D184F8449094F94500401C01D184F891
:104190004590FFF7E1FC04A9684600F077F930B1DB
:1041A0002046FFF7A7FB00F0F3FA0020D4E7FFF763
:1041B000B3FCA06BE16B884213D1FFF7CDFC04F197
:1041C00010000499FFF7B4FD2046FFF793FB00F0C1
:1041D000DFFA00289ED13E60BFF34F8FBFF36F8F91
:1041E00098E7FFF7B9FC2046FFF784FB00F0D0FA10
:1041F00090E7000004ED00E02DE9F0471F469046EF
:104200008946040003D0B9F1000F08D011E0502016
:1042100080F31188BFF34F8FBFF36F8FFEE7206CE1
:1042200038B1502080F31188BFF34F8FBFF36F8FE9
:10423000FEE7022F0AD1E06B012807D0502080F35F
:104240001188BFF34F8FBFF36F8FFEE7FFF7DCFCE2
:104250005020EFF3118680F31188BFF34F8FBFF327
:104260006F8FA06BE16B884206D3022F04D0002031
:1042700086F31188BDE8F08794F94550A06B3A4663
:1042800049462046FFF777F8681C04D06D1C84F877
:1042900045500120ECE7606A0028FAD004F12400C0
:1042A00000F03EFA0028F4D0B8F1000FF1D001215F
:1042B000C8F80010EDE700002DE9F747002683B0AD
:1042C0008A46040003D0BAF1000F08D011E0502054
:1042D00080F31188BFF34F8FBFF36F8FFEE7206C21
:1042E00038B1502080F31188BFF34F8FBFF36F8F29
:1042F000FEE700F05DF9DFF8F4804FF000094FF0C1
:10430000805748B9059838B1502080F31188BFF321
:104310004F8FBFF36F8FFEE7FFF7FEFBA56BC5B1B5
:1043200051462046FFF714F86D1EA563206950B171
:1043300004F1100000F0F4F928B1C8F80070BFF3E0
:104340004F8FBFF36F8FFFF707FC012006B0BDE86A
:10435000F087059808B11EB106E0FFF7FDFB27E0E6
:104360006846FFF7D7FC0126FFF7F6FBFFF758FD7D
:10437000FFF7D2FB94F94400401C01D184F844902B
:1043800094F94500401C01D184F84590FFF7E4FB07
:1043900005A9684600F07AF8002820460AD0FFF701
:1043A000A9FA00F0F5F92046FFF738F90028B3D054
:1043B0000020CBE7FFF732F990B104F12400059912
:1043C000FFF7B6FC2046FFF795FA00F0E1F9002868
:1043D000A2D1C8F80070BFF34F8FBFF36F8F9BE778
:1043E0002046FFF787FA00F0D3F995E704ED00E0E7
:1043F0002DE9F04790468946040003D0B9F1000F3B
:1044000008D011E0502080F31188BFF34F8FBFF325
:104410006F8FFEE7206C38B1502080F31188BFF316
:104420004F8FBFF36F8FFEE7FFF7EEFB5020EFF3E8
:10443000118680F31188BFF34F8FBFF36F8FA76B87
:10444000F7B194F9445049462046FEF781FF7F1E9C
:10445000A763681C04D06D1C84F84450012010E050
:1044600020690028FAD004F1100000F059F9002862
:10447000F4D0B8F1000FF1D00121C8F80010EDE739
:10448000002086F31188BDE8F08700002DE9F04197
:104490000C46050011D0C4B1FFF73EFB174BDA689C
:1044A0006E682068911B471C17D02F681B6A9F42BB
:1044B00019D0964217D8012410E0502080F31188BB
:1044C000BFF34F8FBFF36F8FFEE7502080F311884B
:1044D000BFF34F8FBFF36F8FFEE70024FFF73CFB66
:1044E0002046BDE8F081884205D9401A2060284660
:1044F000FFF710FCF1E700202060DCE7140000204B
:104500002DE9FF5F8346DDE90E87994616468A4608
:104510009000FFF725FA05001CD05C20FFF720FA79
:10452000040014D00020256384F85900CDE902402E
:10453000CDE900874B46324651465846FEF7D4FF38
:104540002046FEF771FE012004B0BDE8F09F28462A
:10455000FFF716FB4FF0FF30F6E7F0B585B0DDE969
:104560000B640A9DA6B1DCB15C2700972663022686
:1045700084F85960002604AFCDE90246CDE9005722
:10458000FEF7B2FF2046FEF74FFE049805B0F0BDDF
:10459000502080F31188BFF34F8FBFF36F8FFEE77A
:1045A000502080F31188BFF34F8FBFF36F8FFEE76A
:1045B0000548416919B1006B18B10020704701200E
:1045C0007047022070470000140000200148C068B6
:1045D00070470000140000202DE9F0412E4C002708
:1045E000206B28B1A069401CA0613846BDE8F0816D
:1045F000E668761CE66013D1606B006838B1502025
:1046000080F31188BFF34F8FBFF36F8FFEE7606BAE
:10461000A16B6163A063206A401C2062FFF7EAF887
:10462000A06ADFF87880864209D3606B0068A0B189
:10463000606BC068C5686868864211D2A062206855
:10464000C06A00EB800158F82100012800D9012739
:10465000E0690028C9D00127C7E74FF0FF30EDE738
:10466000281DFFF7FDF9A86A18B105F11800FFF73A
:10467000F7F9E86A2169884200D9206100EB8001DE
:1046800008EB8100291DFFF73BFAE86A2168C96A37
:104690008842CAD30127C8E714000020E80300209D
:1046A00070B504004FF0000133D01B4D28688442E0
:1046B00007D0502080F31188BFF34F8FBFF36F8F67
:1046C000FEE7206D38B1401E2065E36CE26A9A4235
:1046D0001FD040B11DE0502080F31188BFF34F8FF1
:1046E000BFF36F8FFEE7201DFFF7BAF9E06CE062C1
:1046F000C0F13800A061E06A2969884200D92861C8
:10470000064900EB800001EB8000211DFFF7F8F95E
:104710000121084670BD000014000020E8030020BD
:1047200070B5C068C46854B104F118000646FFF7BC
:1047300097F9144D286B50B13146134815E05020BD
:1047400080F31188BFF34F8FBFF36F8FFEE7201DFB
:10475000FFF786F9E06A2969884200D928610B4988
:1047600000EB800001EB8000211DFFF7C9F9E06A32
:104770002968C96A884202D90120E86170BD002019
:1047800070BD00001400002070080020E803002025
:104790002DE9F0472C4D00242746286B38B1FFF750
:1047A000BBF9286B401E2863286B40B146E05020BF
:1047B00080F31188BFF34F8FBFF36F8FFEE7A968B7
:1047C000224E0120D1B3A6F5916980463068E0B150
:1047D000F068C46804F11800FFF742F9201DFFF7E4
:1047E0003FF9E06A2969884200D9286100EB80011D
:1047F00009EB8100211DFFF783F9E06A2968C96A86
:104800008842E3D3C5F81C80E0E70CB1FEF7F2FF65
:10481000AC694CB14FEA0806FFF7DEFE00B1EE616D
:10482000641EF9D10020A861E86938B10849012760
:1048300038070860BFF34F8FBFF36F8FFFF78CF916
:104840003846BDE8F0870000140000207008002002
:1048500004ED00E010B586B0FEF74EFD114C206867
:10486000B8B100200390049005AA04A903A8FFF79B
:1048700015F9DDE9032102208DE8070000230AA1D4
:104880000B48059AFFF769FE606010B106B0012081
:1048900010BD502080F31188BFF34F8FBFF36F8F8F
:1048A000FEE7000050000020546D72205376630034
:1048B000D13800082DE9FF411E46134602000A9D2B
:1048C0004FF0000016D0144C2768002F0FD0CDE910
:1048D00000130292062917DAFFF76AFE02284FF04A
:1048E00000030FD0002269462068FFF7D5FB04B013
:1048F000BDE8F081502080F31188BFF34F8FBFF3E4
:104900006F8FFEE72A46EEE70023324669463846B7
:10491000FFF772FCEBE70000500000209C540008F9
:104920000000000000000000000000000000000087
:10493000000200001800000000000000000000005D
:10494000010202030405060708090A0B0C0D0E0FED
:104950001010000000000000000001020304060720
:10496000080900000000010203040000000000002C
:1049700000000000000000000000000000F800003F
:104980000000000000333000000000100C06100C86
:104990000600000000000000000040C07840C07821
:1049A0004000043F04043F040400007088FC083009
:1049B0000000001820FF211E0000F008F000E018A1
:1049C000000000211C031E211E0000F0088870005A
:1049D00000001E2123241927211010160E000000AC
:1049E00000000000000000000000000000E01804CB
:1049F0000200000000071820400000020418E00038
:104A000000000040201807000000404080F0804077
:104A100040000202010F01020200000000F000004D
:104A200000000101011F0101010000000000000061
:104A3000000080B0700000000000000000000000D6
:104A4000000000010101010101010000000000005F
:104A50000000003030000000000000000000806016
:104A60001804006018060100000000E0100808109B
:104A7000E000000F102020100F00001010F80000C0
:104A800000000020203F2020000000700808088857
:104A90007000003028242221300000300888884827
:104AA00030000018202020110E000000C02010F857
:104AB000000000070424243F240000F80888880828
:104AC00008000019212020110E0000E0108888182D
:104AD0000000000F112020110E0000380808C8380F
:104AE00008000000003F00000000007088080888EF
:104AF0007000001C222121221C0000E01008081078
:104B0000E0000000312222110F00000000C0C000B0
:104B100000000000003030000000000000800000B5
:104B200000000000806000000000000080402010B5
:104B300008000001020408102000404040404040AE
:104B40004000040404040404040000081020408011
:104B50000000002010080402010000704808080846
:104B6000F0000000003036010000C030C828E81016
:104B7000E0000718272423140B000000C038E000D1
:104B80000000203C23020227382008F8888888701B
:104B90000000203F202020110E00C0300808080827
:104BA0003800071820202010080008F8080808100E
:104BB000E000203F202020100F0008F88888E80837
:104BC0001000203F20202320180008F88888E808DB
:104BD0001000203F200003000000C0300808083803
:104BE000000007182020221E020008F80800000814
:104BF000F808203F210101213F20000808F808089B
:104C000000000020203F2020000000000808F808D5
:104C10000800C08080807F00000008F888C0281845
:104C20000800203F20012638200008F80800000076
:104C30000000203F20202020300008F8F800F8F87D
:104C40000800203F003F003F200008F830C0000867
:104C5000F808203F200007183F00E010080808105F
:104C6000E0000F10202020100F0008F808080808A6
:104C7000F000203F210101010000E01008080810A9
:104C8000E0000F18242438504F0008F888888888DE
:104C90007000203F2000030C3020007088080808B6
:104CA00038000038202121221C00180808F80808C4
:104CB00018000000203F2000000008F8080000084D
:104CC000F808001F202020201F000878880000C856
:104CD0003808000007380E010000F80800F8000846
:104CE000F800033C0700073C030008186880806850
:104CF000180820302C03032C30200838C800C8388E
:104D000008000000203F2000000010080808C838F4
:104D100008002038262120201800000000FE020292
:104D200002000000007F40404000000C30C0000046
:104D30000000000000010638C00000020202FE0070
:104D40000000004040407F0000000000040202021A
:104D5000040000000000000000000000000000004F
:104D6000000080808080808080800002020400003B
:104D70000000000000000000000000008080808033
:104D800000000019242222223F2008F80080800021
:104D90000000003F112020110E00000000808080E4
:104DA0000000000E112020201100000000808088EB
:104DB000F800000E112020103F200000808080802D
:104DC0000000001F222222221300008080F0888829
:104DD00088180020203F2020000000008080808074
:104DE0008000006B94949493600008F800808080A9
:104DF0000000203F210000203F2000809898000004
:104E000000000020203F2020000000000080989833
:104E1000000000C08080807F000008F800008080D3
:104E20008000203F24022D302000000808F80000F8
:104E300000000020203F20200000808080808080B3
:104E40008000203F20003F20003F80800080808045
:104E50000000203F210000203F2000008080808053
:104E60000000001F202020201F0080800080800084
:104E7000000080FFA12020110E0000000080808033
:104E80008000000E112020A0FF80808080008080A4
:104E9000800020203F2120000100000080808080D1
:104EA00080000033242424241900008080E08080C6
:104EB00000000000001F2020000080800000008013
:104EC0008000001F202020103F2080808000008074
:104ED000808000010E300806010080800080008084
:104EE00080800F300C030C300F0000808000808029
:104EF00080000020312E0E31200080808000008054
:104F0000808080818E701806010000808080808003
:104F100080000021302C2221300000000000807C25
:104F2000020200000000003F404000000000FF00BF
:104F3000000000000000FF0000000002027C800072
:104F400000000040403F0000000000060101020296
:104F50000404000000000000000000001008000031
:104F60006A490008E6B3A2001060020CC000F8888D
:104F70008888FF8888A8180004047C0380601F804C
:104F8000432C102846818000E789B900403C10FF7F
:104F90001010404848487F48C8484000020602FFB9
:104FA000010100020A1242827F020200E5BE8B006C
:104FB000001088C43310545454FF54547C10100013
:104FC000020100FF0010121212FF12121210000054
:104FD000E58AA8004044C4444444401010FF101027
:104FE00010F00000103C131014B840300E01408047
:104FF000403F000010100000644F00080400000053
:105000005C4F0008000000000000000000000000ED
:105010000000000000000000000000000000000090
:105020000000000000000000000000000000000080
:105030000000000000000000000000000000000070
:105040000000000000000000000000000000000060
:105050000000000000000000000000000000000050
:105060000000000000000000000000000000000040
:105070000000000000000000000000000000000030
:105080000000000000000000000000000000000020
:105090000000000000000000000000000000000010
:1050A0000000000000000000000000000000000000
:1050B00000000000000000000000000000000000F0
:1050C00000000000000000000000000000000000E0
:1050D00000000000000000000000000000000000D0
:1050E00000000000000000000000000000000000C0
:1050F00000000000000000000000000000000000B0
:10510000000000000000000000000000000000009F
:10511000000000000000000000000000000000008F
:10512000000000000000000000000000000000007F
:1051300000000000000000000000008080C060E06F
:10514000F0F8FCBCD8B0F0E0C0C080000000000067
:10515000000000000000000000000000000000004F
:10516000000000000000000000000000000000003F
:10517000000000000000000000000000000000002F
:10518000000000000000000000000000000000001F
:10519000000000000000000000000000000000000F
:1051A00000000000000000000000000000008080FF
:1051B00080C0E0607038B89C8C8E8FD75B4BE9A4C0
:1051C000A4A4A7636272131113929F9F8EDC1C38F4
:1051D0007070E0C0C080000000000000000000000F
:1051E00000000000000000000000000000000000BF
:1051F00000000000000000000000000000000000AF
:10520000000000000000000000000000000000009E
:10521000000000000000000000000000008080C0CE
:10522000C0C0E060F030F8D8FCBCEE6E66474F4D71
:105230004B4ACAC5C5E5F5D2F2F2F3E9E9E9EDE476
:10524000E4E4E6E2E2E2F1F1E9E9F4F6EAECE4E6CC
:10525000E2E3B8A8ACA5C3C6CEECFCF8F87070E0E9
:10526000E0C0C0C04040000000000000000000009E
:10527000000000000000000000000000000000002E
:10528000000000000000000000000000000000001E
:1052900000000808080C04040606020303030303C5
:1052A00003010101073DFFFFF100000000000000C5
:1052B00000000000000000000000000000000000EE
:1052C00000000000000000000000000000000000DE
:1052D000000000000000000009FF0F0BFF000000AD
:1052E000010103030507070E0F0F0E1E1C0C0C080F
:1052F00008000000000000000000000000000000A6
:10530000000000000000000000000000000000009D
:10531000000000000000000000000000000000008D
:10532000000000000060617FFF1800000000000026
:105330000000000000F8F808180818180808080409
:1053400004040404040404040404040C0808F8F825
:10535000880000000000000000CF3CFCFF020000BD
:10536000000000000000000000000000000000003D
:10537000000000000000000000000000000000002D
:10538000000000000000000000000000000000001D
:10539000000000000000000000000000000000000D
:1053A00000000000000007CDFFFC10000800000016
:1053B0000000000000F77FC00000000000000000B7
:1053C0000000000000000000000000000000FFFFDF
:1053D000C100000000000000F88707ED7F0000001A
:1053E00000000000000000000000000000000000BD
:1053F00000000000000000000000000000000000AD
:10540000000000008040000004500008D054000854
:10541000000000000000000000000000000000008C
:10542000000200002000000000000000000000005A
:10543000B854000800000000000000000000000058
:105440000000000000020000180000000000000042
:1054500000000000C454000800000000000000002C
:105460000000000000000000000200001800000022
:105470000000000000000000A85400080000000028
:10548000000000000000000000000000000200001A
:10549000200000000000000000000000646566615C
:1054A000756C745461736B00436172644368656327
:1054B0006B5461736B0000004D656E755461736BC6
:1054C00000000000446973706C61795461736B0073
:1054D0004B65795461736B00202020202057656C48
:1054E000636F6D6520202020000000002020202018
:1054F0004D61696E204D656E752020200000000012
:1055000041646420436172640000000044656C20C3
:1055100043617264000000005265736574537973CF
:1055200074656D004164642046696E6765720000B1
:1055300044656C2046696E676572000046696E6757
:1055400065727072696E7400685500080000002072
:105550007C02000028010008C05500087C020020E1
:105560000C250000840100084132018210037912E9
:105570007A1AAA01012422B81420D854022C081A3D
:10558000EC3029380128133C550B2908E8300A2D46
:1055900010300A2D18301A24300B2418013013193A
:1055A0002E0B290830301A1D301119300A254830C9
:1055B0001A17300A290C301A1B309AFF018100009B
:04000005080000ED02
:00000001FF
